:100000000EC015C014C013C012C011C010C00FC064
:100010000EC00DC00CC00BC00AC009C008C011241E
:100020001FBECFE5D2E0DEBFCDBF1AD03DC0E8CFC6
:10003000009721F0000000000197FACF0895CF93B8
:10004000DF93EB0112BE18BE22E42ABD21E023BFDC
:10005000EFDF1ABC13BEC09ACE01DF91CF91E8CF7B
:1000600085E087BB88BB88E689BD1ABC13BEC0E0AB
:10007000D0E02196C03D87E0D80709F4C2986BEA2A
:1000800074E08EE692E0DBDF6BEA74E08EE692E0ED
:10009000D6DF6AE677E18EE692E0D1DFC53D87E004
:0C00A000D80739F7C29AE3CFF894FFCFDD
:00000001FF
